:1000000002308A00252A00000A108A100A1182078D
:1000100028340C3401340634D4326D386539613AF1
:1000200075396100D6326E3A693661326F39A03760
:100030006E00C23A6537A031EC34ED300001C830B3
:10004000E3322033F2346F10BA290001D622C522E0
:100050005229D223C720410029308400831300088D
:10006000031940280130F800F701F70B3528F80B89
:1000700034284A30F700F70B3B283E28800B322803
:10008000080030184528081246280816831608125A
:100090008312B0184D2888124E28881683168812AD
:1000A0008312301955280813562808178316081389
:1000B0008312B0195D2888135E2888178316881369
:1000C0000000831208148316081066288312081093
:1000D0008316081083120800B10183160816003039
:1000E0008312081A0130B104831688160030831277
:1000F000881A0130F7000310F70D7708B104831652
:10010000081700308312081B0130F700F70DF70DB8
:10011000FC30F7057708B104831688170030831286
:10012000881B0130F700F70DF70DF70DF830F705D4
:100130007708B1043108F800080088108316881089
:1001400008168816081788178312081583160811D1
:1001500000008312081483160810000083126C201C
:100160007808B000081083160810000083120814E5
:1001700083160810000083126C207808AF00081066
:100180008316081008128812081388138312300E81
:10019000F700F030F70577082F04F8007808AF0073
:1001A000AF1FD4288316A028AD08031DD9288810B6
:1001B000DA28881483168810000083120811831629
:1001C00008110000831208108316081083122E0EE7
:1001D000AF000F30AF052F08B00041202E080F39B7
:1001E000AF00B000412008008316081288120813DF
:1001F000881308108810081183128810831688103D
:100200008312081183160811831208108316081030
:100210000F308312A9002C200130A2002208033CD9
:10022000031C1A290330B00041200530A9002C20FE
:10023000A20A0E290230B0004120A2012208033C8C
:10024000031C2B2922080420A300AD012308AE00C3
:100250009D20A20A1E2908002A0B2F29322940308E
:10026000AB003329AB0101302902AB072B088038E2
:10027000AC00AD012C08AE009D20080028080C3A07
:1002800003194929063A03195129023A0319572932
:100290005C29AD010130AE009D200230A9002C2068
:1002A00062290130A9000230AA002C216229AD0187
:1002B0001030AE009D2062290130AD002808AE004C
:1002C0009D2062290800831603178C170C14000068
:1002D000000083120C087F390319A7290313A20019
:1002E00003170D080313A30003170F080313A4003B
:1002F0002208A8003E21230803178D0003132408B9
:1003000003178F0083168C170C1400000000831253
:100310000C0D0E0D7F390319A7290313A200031733
:100320000D080313A30003170F080313A4002208EA
:10033000A8003E21230803178D0003132408031788
:100340008F008D0A03198F0A031363290317031300
:1003500008002908F80128020318B1292808F70025
:10036000BD29F7010830AA00A80DF70D290877026A
:100370000318F700F80DAA0BB42908002030231E3B
:100380003030A4002208F700A21FCD29F709F70A90
:100390007708A2002D30A400A3172208A80064301B
:1003A000A900A9217708A20030307807A50022080B
:1003B000A8000A30A900A92130307707A700303003
:1003C0007807A6002408F700A31DE829A31F23111E
:1003D000231AF529A31F102A2319102A7708A5002C
:1003E000A318102A7708A600102A30302502031D12
:1003F000102A7708A5002030A400A31D032A23118A
:10040000A314A31FA31030302602031D102A77085F
:10041000A6002030A500A31D032AA310A31F2310AC
:10042000231D152A2408A8003E21A31C1A2A2508EA
:10043000A8003E21231C1F2A2608A8003E212708C9
:10044000A8003E218A110A12C82A03081F39830016
:100450005730F7002030840083138001840AF70BA3
:100460002D2AF801F901FA01FB01FC01FD01FE0151
:100470005030F700A030840083138001840AF70B0A
:100480003D2A6030F7001030840083178001840A11
:10049000F70B462A83136030F700903084008317EF
:1004A0008001840AF70B502A8313A001840183136F
:1004B0001F30830583161F149F141F159F110730CB
:1004C0009C00FF308312A10083161F109F141F157C
:1004D0009F151F1383121F139F1383169F138312DD
:1004E0001F148316091283129412A1122108831675
:1004F0008700831221162108831687008312A11119
:10050000210883168700013083129400003083167F
:1005100094000108C7390838810083129001003027
:10052000F800920000308316920007309C00050806
:1005300085000330F700F70B9B2A1C0883120D136C
:1005400083169D018312F4200530A9000130AA0012
:100550002C210C3003178D0000308F000313632112
:100560000230A200AF30A9002C20A20BB22AF42046
:100570001F151F19B92A03101E0CA0000530A90071
:100580000130AA002C212008A2001F30A300BE29A0
:100590000E30A9000130AA002C212A30A8003E21EB
:1005A0004330A8003E21C830A9002C2020081B3C65
:1005B0000318ED2A83168510831285140430A900D0
:1005C0000230AA002C21123003178D0000308F005A
:1005D00003136321C830A9002C2020081B3C031CF6
:1005E000082B20080A3C0318082B83168510831259
:1005F00085100530A9000230AA002C2119300317FC
:100600008D0000308F0003136321C830A9002C2017
:1006100020080A3C031C232B2008003C0318232B32
:1006200083168510831285100530A9000230AA00B8
:100630002C211F3003178D0000308F00031363211E
:10064000C830A9002C20A008031D392B8316851063
:10065000831285100130A9000230AA002C21263017
:1006600003178D0000308F0003136321C830A900E9
:060670002C20B82A6300F3
:02400E00323F3F
:00000001FF
;PIC16F877A
;CRC=98AA  CREATED="24-dic-17 01:59"
