:1000000000308A0004280000FF238316900000308F
:100010008A001E2826308400000803191D2801309C
:10002000A100A001A00B1228A10B11284A30A000AA
:10003000A00B18281B28800B0F286D2803081F39D8
:1000400083003F30A0002130840083138001840AA4
:10005000A00B2628A00184011F308305831685117B
:1000600083128515A4011F1383161F109F101F11E3
:100070009F110730831299001F1383161F109F10C2
:100080001F119F111F129F121F1383129F131F1402
:1000900083160108C73908388100831290010730A0
:1000A000990083160508850003308312A000A00B79
:1000B000572819088C118316990185168312A401FB
:1000C000851AA40A240B7428051483160510083019
:1000D0008312A500FA30A6000A28A50B6A2805108D
:1000E00083160510772883120510831605105D28E6
:0200F0006300AB
:02400E00C43FAD
:00000001FF
;PIC12F675
;CRC=64DC  CREATED="13-ago-17 20:13"
