:1000000003308A00362B00000A108A100A1182077A
:1000100028340C3401340634D4326D386539613AF1
:100020007539610047396132EF390000C131F4346C
:10003000F6306E326F10D6326E3A693661326F39F1
:100040000001C539F430A031E834E437A0326C1037
:100050006336E936610032308400831300080319E7
:100060003F280130F800F701F70B3428F80B33284C
:100070004A30F700F70B3A283D28800B312808005A
:10008000390EF039F7000F300805770488000000BA
:1000900008144A28081008000808F700080E0F394D
:1000A000F800080088100F3083160805F038880023
:1000B000831208150000081400004C207808B900CD
:1000C00008100000081400004C207808B800081040
:1000D0000F308316080588008312390EF700F030C0
:1000E000F70577083804F8007808B800B81B5328DB
:1000F000361C8810361888140000081100000810FB
:10010000370EB8000F30B8053808B900402037085E
:100110000F39B800B900402008000F3083160805D9
:100120008800081088100811831288100811081020
:100130000F30B2002B200130A4002408033C031C24
:10014000A9280330B90040200530B2002B20A40AB2
:100150009D280230B9004020A4012408033C031C60
:10016000BA2824080420A500B6012508B7005220AB
:10017000A40AAD280800330BBE28C1284030B400C3
:10018000C228B40101303202B40734088038B50007
:10019000B6013508B7005220080031080C3A03199F
:1001A000D828063A0319E028023A0319E628EB2872
:1001B000B6010130B70052200230B2002B20F128E6
:1001C0000130B2000230B300BB20F128B60110307C
:1001D000B7005220F1280130B6003108B700522094
:1001E000F1280800831603178C170C140000000078
:1001F00083120C087F39031936290313A40003174F
:100200000D080313A50003170F080313A600240805
:10021000B100CD20250803178D000313260803170E
:100220008F0083168C170C140000000083120C0D35
:100230000E0D7F39031936290313A40003170D0887
:100240000313A50003170F080313A6002408B10029
:10025000CD20250803178D000313260803178F00F0
:100260008D0A03198F0A0313F228031703130800DA
:100270008E30F7002508F8002408F900FA01F80884
:10028000031D4C297908F800F9010830F702F80835
:10029000031D4C29F70154290310F81B5329F90DAC
:1002A000F80DF7034C29F8138A110A12892BF7016C
:1002B000F801F901FA01B901BA01BB01BC01380822
:1002C000370436043504031995292030BD00031086
:1002D000B10DB20DB30DB40DB90DBA0DBB0DBC0D02
:1002E00038083C02031D7E2937083B02031D7E2986
:1002F00036083A02031D7E2935083902031C8F296E
:100300003508B9023608031C360FBA023708031C39
:10031000370FBB023808031C380FBC020314F70D5B
:10032000F80DF90DFA0DBD0B6729393084008313E0
:1003300008000408A9002808AB0003192B2A270885
:10034000B4002608B3002508B2002408B100B801A3
:10035000B7012030B6008230B500310803191D2ADC
:10036000B900350803191D2AB9070318BE297F30C3
:10037000B902031C1D2A03191D2AC2298130B9079D
:1003800003181D2A3908F700F801F901FA013208AB
:10039000BD00BD173308BC003408BB001830B900DD
:1003A000BA013B1CEB293808FA07031CDD29F90ABE
:1003B000031DDD29F80A0319BA173708F907031CCA
:1003C000E429F80A0319BA173608B300B31733083B
:1003D000F8070318BA17BA0DF80CF90CFA0CBD0C93
:1003E000BC0CBB0C0310B90BD0290130F707031864
:1003F0001D2AF81B022ABD0DFA0DF90DF80DF703A1
:1004000003191D2ABD1F132AFA0A031D132AF90A0C
:10041000031D132AF80A031D132AF80CF90CFA0C11
:10042000F70A03191D2A3208BA003608BA06BA1F9D
:100430001B2AF817212AF813212AF701F801F901DC
:10044000FA017A08A7007908A6007808A5007708BD
:10045000A400AB0B9F292708B4002608B300250889
:10046000B2002408B1003108B63CB100FA013208EC
:10047000B500B2170310B20CB30CB40CFA0CF90CA3
:10048000F80CF70CB10B3A2AB51F512AF709F809F5
:10049000F909FA09F70A0319F80A0319F90A0319FD
:1004A000FA0A7A08A7007908A6007808A500770854
:1004B000A400A71F682AA903A916A409A509A609CB
:1004C000A709A40A0319A50A0319A60A0319A70A6A
:1004D0003B30B0009A30AF00CA30AE00AD010A30F8
:1004E000AB0028080319A90A2708B4002608B3009E
:1004F0002508B2002408B1003008B8002F08B70062
:100500002E08B6002D08B50057210008A400840A63
:100510000008A500840A0008A600840A0008A700B5
:10052000FD308407F708031DA82A280A2B020319A7
:10053000A82A29080319AA2A0F392B020319A22A6B
:100540000318DA2AA91BDA2A291BAA2A2030D62A5C
:100550002030A905A91EB82AA9122808031DA9033D
:100560007708A9002D30B100CD202908F700A90196
:1005700028082B02031DC62A7708A9002E30B100D7
:10058000CD202908F7002030A90500303030A91E01
:10059000D62AA9122808031DA9037708A9002D301F
:1005A000B100CD202908F700A9013030F7077708FE
:1005B000B100CD203008B4002F08B3002E08B200DF
:1005C0002D08B100B801B701B6010A30B5005721B6
:1005D0007A08B0007908AF007808AE007708AD005F
:1005E000AB0B742A8A110A12A32B2508AC00290828
:1005F000AC06AC1F002B03110310A51B0314332BF7
:100600002508AC002808AD002408AD0203190E2B04
:10061000AC1F332B0308013A8300332B2908AD00AC
:100620002508AD0203191A2BAC1F332B0308013A1E
:100630008300332B2A08AD002608AD020319262BB0
:10064000AC1F332B0308013A8300332B2B08AD007A
:100650002708AD020319322BAC1F332B0308013AD4
:100660008300332B03108A110A12C12B84018313D8
:100670001F30830583161F149F141F159F11073009
:100680009C001F109F141F159F151F1383121F1707
:100690009F1783169F1783121F140830F7008101DC
:1006A0008130840083130008C0390738800064005B
:1006B0000008C739F719C039770480000030F80006
:1006C0001F08C73978049F008D200530B200013023
:1006D000B300BB200C3003178D0000308F000313D4
:1006E000F2200230A400AF30B2002B20A40B732BF9
:1006F0008D201F151F197A2B83161E088312A40044
:1007000003101E0CFA00240CF900A4007A08A500BE
:1007100038297A08A3007908A2007808A100770890
:10072000A0000530B2000130B300BB208930840046
:100730002308A7002208A6002108A5002008A4007D
:100740000230A80099290E30B2000130B300BB205E
:10075000123003178D0000308F000313F220C830D1
:10076000B2002B20A701A6013830A5008330A400D9
:100770002308AB002208AA002108A9002008A8002D
:10078000F52A0318C52B031DD92B83168610831257
:1007900086140530B2000230B300BB2016300317B8
:1007A0008D0000308F000313F220C830B2002B20E0
:1007B000EC2B83168610831286100530B2000230AF
:1007C000B300BB20213003178D0000308F000313CE
:0C07D000F220C830B2002B20792B63000F
:02400E00733FFE
:00000001FF
;PIC16F877A
;CRC=ADCF  CREATED="23-dic-17 19:42"
