:1000000003308A00362B00000A108A100A1182077A
:1000100028340C3401340634D4326D386539613AF1
:100020007539610047396132EF390000C131F4346C
:10003000F6306E326F10D6326E3A693661326F39F1
:100040000001C539F430A031E834E437A0326C1037
:100050006336E936610033308400831300080319E6
:100060003F280130F800F701F70B3428F80B33284C
:100070004A30F700F70B3A283D28800B312808005A
:100080003A0EF039F7000F300805770488000000B9
:1000900008144A28081008000808F700080E0F394D
:1000A000F800080088100F3083160805F038880023
:1000B000831208150000081400004C207808BA00CC
:1000C00008100000081400004C207808B90008103F
:1000D0000F3083160805880083123A0EF700F030BF
:1000E000F70577083904F8007808B900B91B5328D8
:1000F000371C8810371888140000081100000810F9
:10010000380EB9000F30B9053908BA004020380858
:100110000F39B900BA00402008000F3083160805D7
:100120008800081088100811831288100811081020
:100130000F30B3002B200130A5002508033C031C21
:10014000A9280330BA0040200530B3002B20A50AAF
:100150009D280230BA004020A5012508033C031C5D
:10016000BA2825080420A600B7012608B8005220A6
:10017000A50AAD280800340BBE28C1284030B500C0
:10018000C228B50101303302B50735088038B60002
:10019000B7013608B8005220080032080C3A03199B
:1001A000D828063A0319E028023A0319E628EB2872
:1001B000B7010130B80052200230B3002B20F128E3
:1001C0000130B3000230B400BB20F128B701103079
:1001D000B8005220F1280130B7003208B800522090
:1001E000F1280800831603178C170C140000000078
:1001F00083120C087F39031936290313A50003174E
:100200000D080313A60003170F080313A700250802
:10021000B200CD20260803178D000313270803170B
:100220008F0083168C170C140000000083120C0D35
:100230000E0D7F39031936290313A50003170D0886
:100240000313A60003170F080313A7002508B20025
:10025000CD20260803178D000313270803178F00EE
:100260008D0A03198F0A0313F228031703130800DA
:100270008E30F7002608F8002508F900FA01F80882
:10028000031D4C297908F800F9010830F702F80835
:10029000031D4C29F70154290310F81B5329F90DAC
:1002A000F80DF7034C29F8138A110A12D42BF70121
:1002B000F801F901FA01BA01BB01BC01BD0139081D
:1002C000380437043604031995292030BE00031082
:1002D000B20DB30DB40DB50DBA0DBB0DBC0DBD0DFA
:1002E00039083D02031D7E2938083C02031D7E2982
:1002F00037083B02031D7E2936083A02031C8F296A
:100300003608BA023708031C370FBB023808031C33
:10031000380FBC023908031C390FBD020314F70D56
:10032000F80DF90DFA0DBE0B67293A3084008313DE
:1003300008000408AA002908AC0003192B2A280881
:10034000B5002708B4002608B3002508B200B9019B
:10035000B8012030B7008230B600320803191D2AD8
:10036000BA00360803191D2ABA070318BE297F30C0
:10037000BA02031C1D2A03191D2AC2298130BA079B
:1003800003181D2A3A08F700F801F901FA013308A9
:10039000BE00BE173408BD003508BC001830BA00D6
:1003A000BB013C1CEB293908FA07031CDD29F90ABB
:1003B000031DDD29F80A0319BB173808F907031CC8
:1003C000E429F80A0319BB173708B400B417340836
:1003D000F8070318BB17BB0DF80CF90CFA0CBE0C90
:1003E000BD0CBC0C0310BA0BD0290130F707031861
:1003F0001D2AF81B022ABE0DFA0DF90DF80DF703A0
:1004000003191D2ABE1F132AFA0A031D132AF90A0B
:10041000031D132AF80A031D132AF80CF90CFA0C11
:10042000F70A03191D2A3308BB003708BB06BB1F98
:100430001B2AF817212AF813212AF701F801F901DC
:10044000FA017A08A8007908A7007808A6007708BA
:10045000A500AC0B9F292808B5002708B400260882
:10046000B3002508B2003208B63CB200FA013308E6
:10047000B600B3170310B30CB40CB50CFA0CF90C9E
:10048000F80CF70CB20B3A2AB61F512AF709F809F3
:10049000F909FA09F70A0319F80A0319F90A0319FD
:1004A000FA0A7A08A8007908A7007808A600770851
:1004B000A500A81F682AAA03AA16A509A609A709C4
:1004C000A809A50A0319A60A0319A70A0319A80A65
:1004D0003B30B1009A30B000CA30AF00AE010A30F4
:1004E000AC0029080319AA0A2808B5002708B40097
:1004F0002608B3002508B2003108B9003008B8005A
:100500002F08B7002E08B60057210008A500840A5E
:100510000008A600840A0008A700840A0008A800B2
:10052000FD308407F708031DA82A290A2C020319A5
:10053000A82A2A080319AA2A0F392C020319A22A69
:100540000318DA2AAA1BDA2A2A1BAA2A2030D62A5A
:100550002030AA05AA1EB82AAA122908031DAA0338
:100560007708AA002D30B200CD202A08F700AA0192
:1005700029082C02031DC62A7708AA002E30B200D3
:10058000CD202A08F7002030AA0500303030AA1EFE
:10059000D62AAA122908031DAA037708AA002D301B
:1005A000B200CD202A08F700AA013030F7077708FB
:1005B000B200CD203108B5003008B4002F08B300D8
:1005C0002E08B200B901B801B7010A30B6005721B0
:1005D0007A08B1007908B0007808AF007708AE005B
:1005E000AC0B742A8A110A12EE2B2608AD002A08D9
:1005F000AD06AD1F002B03110310A61B0314332BF4
:100600002608AD002908AE002508AE0203190E2BFE
:10061000AD1F332B0308013A8300332B2A08AE00A9
:100620002608AE0203191A2BAD1F332B0308013A1B
:100630008300332B2B08AE002708AE020319262BAC
:10064000AD1F332B0308013A8300332B2C08AE0077
:100650002808AE020319322BAD1F332B0308013AD1
:100660008300332B03108A110A120C2C03081F3944
:1006700083005730F7002030840083138001840A00
:10068000F70B3E2BF801F901FA01FB01FC01FD011A
:10069000FE015030F700A030840083138001840AEB
:1006A000F70B4E2B6030F700103084008317800169
:1006B000840AF70B572B83136030F70090308400C7
:1006C00083178001840AF70B612B8313A001840137
:1006D00083131F30830583161F149F141F159F114A
:1006E00007309C00FF308312A40083161F109F1454
:1006F0001F159F151F1383121F139F1383169F131C
:1007000083121F148316091283129412A412240850
:100710008316870083122416240883168700831209
:10072000A41124088316870001308312940000303E
:10073000831694000108C73908388100831290019C
:100740000030F800920000308316920007309C00C1
:10075000050885000330F700F70BAC2B1C0883124B
:100760000D1383169D0183128D200530B3000130D7
:10077000B400BB200C3003178D0000308F00031332
:10078000F2200230A500AF30B3002B20A50BC32B05
:100790008D201F151F19CA2B1E08F7000310F70C18
:1007A0007708A601A50038297A08A3007908A200D5
:1007B0007808A1007708A0000530B3000130B4002C
:1007C000BB20893084002308A8002208A700210844
:1007D000A6002008A5000230A90099290E30B30018
:1007E0000130B400BB20123003178D0000308F00A1
:1007F0000313F220C830B3002B20A801A701383022
:10080000A6008330A5002308AC002208AB00210815
:10081000AA002008A900F52A0318102C031D242C77
:1008200083168510831285140530B3000230B4009E
:10083000BB20163003178D0000308F000313F22009
:10084000C830B3002B20372C8316851083128510F7
:100850000530B3000230B400BB20213003178D00F7
:1008600000308F000313F220C830B3002B20C92BB7
:02087000630023
:02400E003A3F37
:00000001FF
;PIC16F877A
;CRC=F043  CREATED="25-nov.-16 20:54"
