:1000000000308A0004280000FF238316900000308F
:100010008A00B9281F1383161F109F101F119F11EC
:100020001F129F121F1383129F131F1483160108A0
:10003000C739083881008312900107309900831670
:100040000508850003308312A000A00B252819089D
:100050008C11831699018312D82827308400000858
:10006000031940280130A100A001A00B3528A10BE5
:1000700034284A30A000A00B3B283E28800B3228B1
:100080000800831605168312A401051AA40A240B7E
:100090007E280430A600FA30A7002D20A60B4B289E
:1000A000A50A831605168312A401051AA40A240BB7
:1000B0007D2849280130A507831605168312A4015F
:1000C000051AA40A240B7D2849280230A5078316A7
:1000D00005168312A401051AA40A240B7D284928B9
:1000E0000330A507831605168312A401051AA40A76
:1000F000240B7D2849280430A507AF2801302502AC
:10010000FC3E0318AF28043EB12883160510831265
:100110000510A501AF28831605168312051E922827
:10012000A501A12883160510831205146430A700C9
:100130002D2083160510831205106430A7002D2092
:100140008B28A501AF288316051083120514A5017D
:10015000AF288316051083120510A501AF2841288A
:10016000D9280A108A100A11820785288B28A3280B
:10017000A92803081F3983003F30A00021308400E4
:1001800083138001840AA00BC128A00184011F30C1
:1001900083058316851183128515A4011F13831609
:1001A0001F109F101F119F110730831299000A28FA
:0401B000412863007F
:02400E00E43F8D
:00000001FF
;PIC12F675
;CRC=DFC8  CREATED="09-dic.-16 18:57"
