:1000000060EF00F0C150C00B0E09C16EC090C092ED
:10001000C094C09EC280C69A949E93809392010E13
:10002000C66E000EC76ED190800ED56ECD6A000EE2
:10003000CA6E000ECB6E070EB46E9250926E030E17
:10004000006E002EFED7B450A19CB56A83EF00F07D
:10005000C282C2B2FED7C4CF04F0042C07D092965D
:100060008986929289929294899427D004500208AA
:1000700007E19294898492968996929289921DD0F2
:100080000450030807E1929489849296898692929B
:10009000899213D00450040807E1929489949296AF
:1000A00089969292898209D00450050806E19294BB
:1000B00089949296898692928982CAD784EF00F0B9
:1000C000F86AD09EFE0E006E080E016E020EE96EFA
:1000D000000EEA6EEE6A0400002EFCD7012EFAD75D
:1000E000EA6AE96A600ED36ED350B896190EAF6E05
:1000F000A60EAC6E900EAB6EC150C00B0F09C16E58
:0A010000070EB46E7FD7A4D70300EA
:020000040030CA
:0E0000003FC8380E008781000FC00FE00F4090
:00000001FF
;PIC18F2550
;CRC=DD47  CREATED="21-nov.-16 16:32"
