:100000001EEF00F08E0E006E09C001F008C002F075
:10001000036A015209E102C001F0026A080E005EA3
:10002000015202E1006A08D0D89001BE04D0023625
:1000300001360006F9D7019E6BEF00F0F86AD09EFA
:10004000FE0E006E080E016E020EE96E000EEA6EE4
:10005000EE6A0400002EFCD7012EFAD7EA6AE96A9C
:10006000600ED36ED350B896190EAF6EA60EAC6E5E
:10007000900EAB6EC150C00B0F09C16E070EB46E6F
:10008000C150C00B0E09C16EC090C092C094C09EFA
:10009000C280C69A949E93809392010EC66E000E03
:1000A000C76ED190800ED56ECD6A000ECA6E000E5E
:1000B000CB6E070EB46E9250926E030E006E002E41
:1000C000FED7B450A19CB56AC282C2B2FED7C4505A
:1000D000096A086E97D703C007F002C006F001C096
:0800E00005F000C004F003006C
:020000040030CA
:0E0000003FC8380E008781000FC00FE00F4090
:00000001FF
;PIC18F2550
;CRC=2C56  CREATED="21-nov.-16 16:25"
